{
  "transactions": [
    {
      "hash": "0x10a1a3ba20c7f2c2d01b2c8c6956abaf1a84a2a894786fa25573c31ee9a2b883",
      "transactionType": "CALL",
      "contractName": null,
      "contractAddress": "0x6765c57fe60a53efd500c11aa851d675e4d2fed5",
      "function": "mint(address,uint256)",
      "arguments": [
        "0xAd62D8f006cF20543c11fc842B54Cc4AD08285F6",
        "100"
      ],
      "transaction": {
        "from": "0xad62d8f006cf20543c11fc842b54cc4ad08285f6",
        "to": "0x6765c57fe60a53efd500c11aa851d675e4d2fed5",
        "gas": "0xc34f",
        "value": "0x0",
        "input": "0x40c10f19000000000000000000000000ad62d8f006cf20543c11fc842b54cc4ad08285f60000000000000000000000000000000000000000000000000000000000000064",
        "nonce": "0x21",
        "chainId": "0xa869"
      },
      "additionalContracts": [],
      "isFixedGasLimit": false
    },
    {
      "hash": "0x6918b8b8a3d8f7e8ddff76a1068111393c98422c03c5f2992912b169fdc19e89",
      "transactionType": "CALL",
      "contractName": null,
      "contractAddress": "0xd4edefdfb98ff63e1da2b3c5552cfb98c2f5f141",
      "function": "mint(address,uint256)",
      "arguments": [
        "0xAd62D8f006cF20543c11fc842B54Cc4AD08285F6",
        "100"
      ],
      "transaction": {
        "from": "0xad62d8f006cf20543c11fc842b54cc4ad08285f6",
        "to": "0xd4edefdfb98ff63e1da2b3c5552cfb98c2f5f141",
        "gas": "0xc34f",
        "value": "0x0",
        "input": "0x40c10f19000000000000000000000000ad62d8f006cf20543c11fc842b54cc4ad08285f60000000000000000000000000000000000000000000000000000000000000064",
        "nonce": "0x22",
        "chainId": "0xa869"
      },
      "additionalContracts": [],
      "isFixedGasLimit": false
    }
  ],
  "receipts": [
    {
      "status": "0x1",
      "cumulativeGasUsed": "0x8d67",
      "logs": [
        {
          "address": "0x6765c57fe60a53efd500c11aa851d675e4d2fed5",
          "topics": [
            "0xddf252ad1be2c89b69c2b068fc378daa952ba7f163c4a11628f55a4df523b3ef",
            "0x0000000000000000000000000000000000000000000000000000000000000000",
            "0x000000000000000000000000ad62d8f006cf20543c11fc842b54cc4ad08285f6"
          ],
          "data": "0x0000000000000000000000000000000000000000000000000000000000000064",
          "blockHash": "0xbec6559b428a1b67fbb6f9170d1992565fa60aeba61bc55d57d6fbe58f15beff",
          "blockNumber": "0x2393822",
          "transactionHash": "0x10a1a3ba20c7f2c2d01b2c8c6956abaf1a84a2a894786fa25573c31ee9a2b883",
          "transactionIndex": "0x0",
          "logIndex": "0x0",
          "removed": false
        }
      ],
      "logsBloom": "0x00000000000000000000000000000000000000000000000000000000000100000000000000000000000000000000000000000000000000000000000000000000000008000000000000000008000000000000000000000000000000000000000000000000020000000000000000000800000000000000000000000010000000000000010000000000000000000000000000000000000000000000000000000400000000000000000000000000000000000000000000000000000000000000400000000002000000000000000000000000000000000000000000010000000020000000000000000000000000000000000000000000000000000000000000000000",
      "type": "0x2",
      "transactionHash": "0x10a1a3ba20c7f2c2d01b2c8c6956abaf1a84a2a894786fa25573c31ee9a2b883",
      "transactionIndex": "0x0",
      "blockHash": "0xbec6559b428a1b67fbb6f9170d1992565fa60aeba61bc55d57d6fbe58f15beff",
      "blockNumber": "0x2393822",
      "gasUsed": "0x8d67",
      "effectiveGasPrice": "0x4190ab01",
      "from": "0xad62d8f006cf20543c11fc842b54cc4ad08285f6",
      "to": "0x6765c57fe60a53efd500c11aa851d675e4d2fed5",
      "contractAddress": null
    },
    {
      "status": "0x1",
      "cumulativeGasUsed": "0x8d67",
      "logs": [
        {
          "address": "0xd4edefdfb98ff63e1da2b3c5552cfb98c2f5f141",
          "topics": [
            "0xddf252ad1be2c89b69c2b068fc378daa952ba7f163c4a11628f55a4df523b3ef",
            "0x0000000000000000000000000000000000000000000000000000000000000000",
            "0x000000000000000000000000ad62d8f006cf20543c11fc842b54cc4ad08285f6"
          ],
          "data": "0x0000000000000000000000000000000000000000000000000000000000000064",
          "blockHash": "0x404d60f712d700ca0a98ae89997ef3e9503f76289f7b45707bb533fd18c349b1",
          "blockNumber": "0x2393823",
          "transactionHash": "0x6918b8b8a3d8f7e8ddff76a1068111393c98422c03c5f2992912b169fdc19e89",
          "transactionIndex": "0x0",
          "logIndex": "0x0",
          "removed": false
        }
      ],
      "logsBloom": "0x00000000000000000000000000000000000000000000000000000000000100000000000000000000000000000000000000000000000000000000000020000000000000000000000000000008000000000000000000000000000000000000000000000000020000000000000000000800000000000000000000000010000000000000010000000000000000000000000000000000000000000000000000000000000000000000000000000000000000000000000000000000000000001000400000000002000000000000000000000000000000000000000000000000000020000000000000000000000000000000000000000040000000000000000000000000",
      "type": "0x2",
      "transactionHash": "0x6918b8b8a3d8f7e8ddff76a1068111393c98422c03c5f2992912b169fdc19e89",
      "transactionIndex": "0x0",
      "blockHash": "0x404d60f712d700ca0a98ae89997ef3e9503f76289f7b45707bb533fd18c349b1",
      "blockNumber": "0x2393823",
      "gasUsed": "0x8d67",
      "effectiveGasPrice": "0x4190ab01",
      "from": "0xad62d8f006cf20543c11fc842b54cc4ad08285f6",
      "to": "0xd4edefdfb98ff63e1da2b3c5552cfb98c2f5f141",
      "contractAddress": null
    }
  ],
  "libraries": [],
  "pending": [],
  "returns": {},
  "timestamp": 1735212898,
  "chain": 43113,
  "commit": null
}