{
  "transactions": [
    {
      "hash": "0xafef5489dfc0ff15503283a4f595d668a2f18d9d0e859be6cc4ed4e5d1bd82b6",
      "transactionType": "CALL",
      "contractName": null,
      "contractAddress": "0x69f543b6b4c228c11455f8b063c5fcf049b5b58f",
      "function": "mint(address,uint256)",
      "arguments": [
        "0xAd62D8f006cF20543c11fc842B54Cc4AD08285F6",
        "100"
      ],
      "transaction": {
        "from": "0xad62d8f006cf20543c11fc842b54cc4ad08285f6",
        "to": "0x69f543b6b4c228c11455f8b063c5fcf049b5b58f",
        "gas": "0xc34f",
        "value": "0x0",
        "input": "0x40c10f19000000000000000000000000ad62d8f006cf20543c11fc842b54cc4ad08285f60000000000000000000000000000000000000000000000000000000000000064",
        "nonce": "0x1c",
        "chainId": "0xa869"
      },
      "additionalContracts": [],
      "isFixedGasLimit": false
    },
    {
      "hash": "0x8df5c22a21d199c285cda694195551b3b5f3f7b0905ce3acc12cf12477aadd31",
      "transactionType": "CALL",
      "contractName": null,
      "contractAddress": "0x4d988a8867d0fefc76ca7b981ef7e9882463f67f",
      "function": "mint(address,uint256)",
      "arguments": [
        "0xAd62D8f006cF20543c11fc842B54Cc4AD08285F6",
        "100"
      ],
      "transaction": {
        "from": "0xad62d8f006cf20543c11fc842b54cc4ad08285f6",
        "to": "0x4d988a8867d0fefc76ca7b981ef7e9882463f67f",
        "gas": "0xc34f",
        "value": "0x0",
        "input": "0x40c10f19000000000000000000000000ad62d8f006cf20543c11fc842b54cc4ad08285f60000000000000000000000000000000000000000000000000000000000000064",
        "nonce": "0x1d",
        "chainId": "0xa869"
      },
      "additionalContracts": [],
      "isFixedGasLimit": false
    }
  ],
  "receipts": [
    {
      "status": "0x1",
      "cumulativeGasUsed": "0x8d67",
      "logs": [
        {
          "address": "0x69f543b6b4c228c11455f8b063c5fcf049b5b58f",
          "topics": [
            "0xddf252ad1be2c89b69c2b068fc378daa952ba7f163c4a11628f55a4df523b3ef",
            "0x0000000000000000000000000000000000000000000000000000000000000000",
            "0x000000000000000000000000ad62d8f006cf20543c11fc842b54cc4ad08285f6"
          ],
          "data": "0x0000000000000000000000000000000000000000000000000000000000000064",
          "blockHash": "0x277cf64fbd11f85356985cf6dc8940f5613ac78ffafaa81f8c91d9a82f5edb05",
          "blockNumber": "0x2393792",
          "transactionHash": "0xafef5489dfc0ff15503283a4f595d668a2f18d9d0e859be6cc4ed4e5d1bd82b6",
          "transactionIndex": "0x0",
          "logIndex": "0x0",
          "removed": false
        }
      ],
      "logsBloom": "0x00000000000000000000000000000000000000008000000000000000000100000000800000000000000000000000000000000000000000000000000000000000000000000000000000000008000000000000000000000000000000000000000000000000020000000000000000000800000000000000000000000010000000000000010000000000000000000000000000000000000000000000000000000000000000000000000000000000000000000000000000000000000000000000400000000002000000000000000000000000000000000000000000000000000020000000000000000000000080000000000000000000000000000000000000000000",
      "type": "0x2",
      "transactionHash": "0xafef5489dfc0ff15503283a4f595d668a2f18d9d0e859be6cc4ed4e5d1bd82b6",
      "transactionIndex": "0x0",
      "blockHash": "0x277cf64fbd11f85356985cf6dc8940f5613ac78ffafaa81f8c91d9a82f5edb05",
      "blockNumber": "0x2393792",
      "gasUsed": "0x8d67",
      "effectiveGasPrice": "0x277cf2a00",
      "from": "0xad62d8f006cf20543c11fc842b54cc4ad08285f6",
      "to": "0x69f543b6b4c228c11455f8b063c5fcf049b5b58f",
      "contractAddress": null
    },
    {
      "status": "0x1",
      "cumulativeGasUsed": "0x11ace",
      "logs": [
        {
          "address": "0x4d988a8867d0fefc76ca7b981ef7e9882463f67f",
          "topics": [
            "0xddf252ad1be2c89b69c2b068fc378daa952ba7f163c4a11628f55a4df523b3ef",
            "0x0000000000000000000000000000000000000000000000000000000000000000",
            "0x000000000000000000000000ad62d8f006cf20543c11fc842b54cc4ad08285f6"
          ],
          "data": "0x0000000000000000000000000000000000000000000000000000000000000064",
          "blockHash": "0x277cf64fbd11f85356985cf6dc8940f5613ac78ffafaa81f8c91d9a82f5edb05",
          "blockNumber": "0x2393792",
          "transactionHash": "0x8df5c22a21d199c285cda694195551b3b5f3f7b0905ce3acc12cf12477aadd31",
          "transactionIndex": "0x1",
          "logIndex": "0x1",
          "removed": false
        }
      ],
      "logsBloom": "0x00000000000000000000000000000000000000000000000000000000000100000000000000000000000000000000000000000000000000000000002000000000000000000000000000000008000000000000000000000000000000000001000000000000020000000000000000000800000000000000000000000010000000000000010000000000000000000000000000000000000000000000000000000000000000000000000000001000000000000000000000000000000000000000400000000002000000000000000000000000000000000000000000000000000020000000000000000000000000000000000000000000000000000000000000000000",
      "type": "0x2",
      "transactionHash": "0x8df5c22a21d199c285cda694195551b3b5f3f7b0905ce3acc12cf12477aadd31",
      "transactionIndex": "0x1",
      "blockHash": "0x277cf64fbd11f85356985cf6dc8940f5613ac78ffafaa81f8c91d9a82f5edb05",
      "blockNumber": "0x2393792",
      "gasUsed": "0x8d67",
      "effectiveGasPrice": "0x277cf2a00",
      "from": "0xad62d8f006cf20543c11fc842b54cc4ad08285f6",
      "to": "0x4d988a8867d0fefc76ca7b981ef7e9882463f67f",
      "contractAddress": null
    }
  ],
  "libraries": [],
  "pending": [],
  "returns": {},
  "timestamp": 1735211825,
  "chain": 43113,
  "commit": null
}